{
  "contractName": "MarketPlaceBoilerPlate",
  "abi": [
    {
      "inputs": [],
      "stateMutability": "nonpayable",
      "type": "constructor"
    },
    {
      "anonymous": false,
      "inputs": [
        {
          "indexed": true,
          "internalType": "uint256",
          "name": "itemId",
          "type": "uint256"
        },
        {
          "indexed": true,
          "internalType": "address",
          "name": "nftContract",
          "type": "address"
        },
        {
          "indexed": true,
          "internalType": "uint256",
          "name": "tokenId",
          "type": "uint256"
        },
        {
          "indexed": false,
          "internalType": "address",
          "name": "seller",
          "type": "address"
        },
        {
          "indexed": false,
          "internalType": "address",
          "name": "owner",
          "type": "address"
        },
        {
          "indexed": false,
          "internalType": "uint256",
          "name": "price",
          "type": "uint256"
        },
        {
          "indexed": false,
          "internalType": "bool",
          "name": "sold",
          "type": "bool"
        }
      ],
      "name": "MarketItemCreated",
      "type": "event"
    },
    {
      "anonymous": false,
      "inputs": [
        {
          "indexed": true,
          "internalType": "uint256",
          "name": "itemId",
          "type": "uint256"
        },
        {
          "indexed": false,
          "internalType": "address",
          "name": "owner",
          "type": "address"
        }
      ],
      "name": "MarketItemSold",
      "type": "event"
    },
    {
      "inputs": [],
      "name": "owner",
      "outputs": [
        {
          "internalType": "address",
          "name": "",
          "type": "address"
        }
      ],
      "stateMutability": "view",
      "type": "function"
    },
    {
      "inputs": [
        {
          "internalType": "address",
          "name": "nftContract",
          "type": "address"
        },
        {
          "internalType": "uint256",
          "name": "tokenId",
          "type": "uint256"
        },
        {
          "internalType": "uint256",
          "name": "price",
          "type": "uint256"
        }
      ],
      "name": "createMarketItem",
      "outputs": [],
      "stateMutability": "payable",
      "type": "function"
    },
    {
      "inputs": [
        {
          "internalType": "address",
          "name": "nftContract",
          "type": "address"
        },
        {
          "internalType": "uint256",
          "name": "itemId",
          "type": "uint256"
        }
      ],
      "name": "createMarketSale",
      "outputs": [],
      "stateMutability": "payable",
      "type": "function"
    },
    {
      "inputs": [],
      "name": "fetchMarketItems",
      "outputs": [
        {
          "components": [
            {
              "internalType": "uint256",
              "name": "itemId",
              "type": "uint256"
            },
            {
              "internalType": "address",
              "name": "nftContract",
              "type": "address"
            },
            {
              "internalType": "uint256",
              "name": "tokenId",
              "type": "uint256"
            },
            {
              "internalType": "address payable",
              "name": "seller",
              "type": "address"
            },
            {
              "internalType": "address payable",
              "name": "owner",
              "type": "address"
            },
            {
              "internalType": "uint256",
              "name": "price",
              "type": "uint256"
            },
            {
              "internalType": "bool",
              "name": "sold",
              "type": "bool"
            }
          ],
          "internalType": "struct MarketPlaceBoilerPlate.MarketItem[]",
          "name": "",
          "type": "tuple[]"
        }
      ],
      "stateMutability": "view",
      "type": "function"
    }
  ],
  "bytecode": "0x608060405234801561001057600080fd5b506001600055600380546001600160a01b03191633179055610913806100376000396000f3fe60806040526004361061003f5760003560e01c80630f08efe01461004457806358eb2df51461006f5780638da5cb5b14610084578063c23b139e146100bc575b600080fd5b34801561005057600080fd5b506100596100cf565b60405161006691906107bd565b60405180910390f35b61008261007d36600461078a565b610287565b005b34801561009057600080fd5b506003546100a4906001600160a01b031681565b6040516001600160a01b039091168152602001610066565b6100826100ca366004610760565b6104c6565b606060006100dc60015490565b905060006100e960025490565b6001546100f69190610869565b90506000808267ffffffffffffffff811115610114576101146108c7565b60405190808252806020026020018201604052801561017b57816020015b6040805160e08101825260008082526020808301829052928201819052606082018190526080820181905260a0820181905260c082015282526000199092019101816101325790505b50905060005b8481101561027e576000600481610199846001610851565b81526020810191909152604001600020600401546001600160a01b0316141561026c5760006101c9826001610851565b600081815260046020818152604092839020835160e0810185528154815260018201546001600160a01b039081169382019390935260028201549481019490945260038101548216606085015291820154166080830152600581015460a0830152600681015460ff16151560c0830152855192935091859087908110610251576102516108b1565b6020908102919091010152610267600186610851565b945050505b8061027681610880565b915050610181565b50949350505050565b600260005414156102df5760405162461bcd60e51b815260206004820152601f60248201527f5265656e7472616e637947756172643a207265656e7472616e742063616c6c0060448201526064015b60405180910390fd5b6002600055806103315760405162461bcd60e51b815260206004820152601c60248201527f5072696365206d7573742062652067726561746572207468616e20300000000060448201526064016102d6565b61033f600180546001019055565b600061034a60015490565b6040805160e0810182528281526001600160a01b0387811660208084018281528486018a8152336060870181815260006080890181815260a08a018e815260c08b018381528d8452600498899052928c90209a518b55955160018b0180546001600160a01b0319908116928c16929092179055945160028b0155915160038a0180548616918a16919091179055905188860180549094169716969096179091559051600586015592516006909401805460ff19169415159490941790935592516323b872dd60e01b81529182015230602482015260448101869052919250906323b872dd90606401600060405180830381600087803b15801561044c57600080fd5b505af1158015610460573d6000803e3d6000fd5b505060408051338152600060208201819052818301879052606082015290518693506001600160a01b038816925084917f045dfa01dcba2b36aba1d3dc4a874f4b0c5d2fbeb8d2c4b34a7d88c8d8f929d1919081900360800190a4505060016000555050565b600260005414156105195760405162461bcd60e51b815260206004820152601f60248201527f5265656e7472616e637947756172643a207265656e7472616e742063616c6c0060448201526064016102d6565b6002600081815582815260046020526040902060058101549181015460069091015460ff16348311156105b6576040805162461bcd60e51b81526020600482015260248101919091527f506c65617365207375626d6974207468652061736b696e67207072696365206960448201527f6e206f7264657220746f20636f6d706c6574652074686520707572636861736560648201526084016102d6565b600181151514156106095760405162461bcd60e51b815260206004820152601e60248201527f546869732053616c652068617320616c726564792066696e6e6973686564000060448201526064016102d6565b60405133815284907f2073b2706c235effb1e3840575370a51749afd8181b4018f93bff955d50792cb9060200160405180910390a26000848152600460205260408082206003015490516001600160a01b03909116913480156108fc02929091818181858888f19350505050158015610686573d6000803e3d6000fd5b506040516323b872dd60e01b8152306004820152336024820152604481018390526001600160a01b038616906323b872dd90606401600060405180830381600087803b1580156106d557600080fd5b505af11580156106e9573d6000803e3d6000fd5b50505060008581526004602081905260409091200180546001600160a01b031916331790555061071d600280546001019055565b5050506000908152600460205260408120600601805460ff19166001908117909155905550565b80356001600160a01b038116811461075b57600080fd5b919050565b6000806040838503121561077357600080fd5b61077c83610744565b946020939093013593505050565b60008060006060848603121561079f57600080fd5b6107a884610744565b95602085013595506040909401359392505050565b602080825282518282018190526000919060409081850190868401855b8281101561084457815180518552868101516001600160a01b039081168887015286820151878701526060808301518216908701526080808301519091169086015260a0808201519086015260c09081015115159085015260e090930192908501906001016107da565b5091979650505050505050565b600082198211156108645761086461089b565b500190565b60008282101561087b5761087b61089b565b500390565b60006000198214156108945761089461089b565b5060010190565b634e487b7160e01b600052601160045260246000fd5b634e487b7160e01b600052603260045260246000fd5b634e487b7160e01b600052604160045260246000fdfea2646970667358221220854587f8b7d20b2a3c2c3f7e8265fb0b6090aa85cba2b41bb18558240dec367564736f6c63430008070033",
  "immutableReferences": {},
  "source": "// SPDX-License-Identifier: MIT\npragma solidity ^0.8.4;\n\nimport \"@openzeppelin/contracts/utils/Counters.sol\";\nimport \"@openzeppelin/contracts/token/ERC721/ERC721.sol\";\nimport \"@openzeppelin/contracts/security/ReentrancyGuard.sol\";\n\ncontract MarketPlaceBoilerPlate is ReentrancyGuard {\n    using Counters for Counters.Counter;\n    Counters.Counter private _itemIds;\n    Counters.Counter private _itemsSold;\n    \n    address public owner;\n    \n    constructor() {\n        owner = msg.sender;\n    }\n    \n    struct MarketItem {\n        uint itemId;\n        address nftContract;\n        uint256 tokenId;\n        address payable seller;\n        address payable owner;\n        uint256 price;\n        bool sold;\n    }\n    \n    mapping(uint256 => MarketItem) private idToMarketItem;\n    \n    event MarketItemCreated (\n        uint indexed itemId,\n        address indexed nftContract,\n        uint256 indexed tokenId,\n        address seller,\n        address owner,\n        uint256 price,\n        bool sold\n    );\n    \n    event MarketItemSold (\n        uint indexed itemId,\n        address owner\n    );\n    \n    \n    \n    function createMarketItem(\n        address nftContract,\n        uint256 tokenId,\n        uint256 price\n        ) public payable nonReentrant {\n            require(price > 0, \"Price must be greater than 0\");\n            \n            _itemIds.increment();\n            uint256 itemId = _itemIds.current();\n  \n            idToMarketItem[itemId] =  MarketItem(\n                itemId,\n                nftContract,\n                tokenId,\n                payable(msg.sender),\n                payable(address(0)),\n                price,\n                false\n            );\n            \n            IERC721(nftContract).transferFrom(msg.sender, address(this), tokenId);\n                \n            emit MarketItemCreated(\n                itemId,\n                nftContract,\n                tokenId,\n                msg.sender,\n                address(0),\n                price,\n                false\n            );\n        }\n        \n    function createMarketSale(address nftContract, uint256 itemId) public payable nonReentrant {\n        uint price = idToMarketItem[itemId].price;\n        uint tokenId = idToMarketItem[itemId].tokenId;\n        bool sold = idToMarketItem[itemId].sold;\n        require(msg.value >= price, \"Please submit the asking price in order to complete the purchase\");\n        require(sold != true, \"This Sale has alredy finnished\");\n        emit MarketItemSold(\n            itemId,\n            msg.sender\n            );\n\n        idToMarketItem[itemId].seller.transfer(msg.value);\n        IERC721(nftContract).transferFrom(address(this), msg.sender, tokenId);\n        idToMarketItem[itemId].owner = payable(msg.sender);\n        _itemsSold.increment();\n        idToMarketItem[itemId].sold = true;\n    }\n        \n    function fetchMarketItems() public view returns (MarketItem[] memory) {\n        uint itemCount = _itemIds.current();\n        uint unsoldItemCount = _itemIds.current() - _itemsSold.current();\n        uint currentIndex = 0;\n\n        MarketItem[] memory items = new MarketItem[](unsoldItemCount);\n        for (uint i = 0; i < itemCount; i++) {\n            if (idToMarketItem[i + 1].owner == address(0)) {\n                uint currentId = i + 1;\n                MarketItem storage currentItem = idToMarketItem[currentId];\n                items[currentIndex] = currentItem;\n                currentIndex += 1;\n            }\n        }\n        return items;\n    }\n    \n}\n\n",
  "sourcePath": "/Users/macbookpro4eric/Projects/blockchain/project49_nft_market_place/contracts/MarketplaceBoilerplate.sol",
  "compiler": {
    "name": "solc",
    "version": "0.8.7+commit.e28d00a7.Emscripten.clang"
  },
  "schemaVersion": "3.3.4",
  "updatedAt": "2021-12-15T12:30:41.834Z",
  "devdoc": {
    "kind": "dev",
    "methods": {},
    "version": 1
  },
  "userdoc": {
    "kind": "user",
    "methods": {},
    "version": 1
  }
}